:020000040800F2
:1000000000000220410A00083D0A0008ED5F0008D8
:100010003D0A00083D0A00083D0A000800000000F3
:100020000000000000000000000000003D0A000881
:100030003D0A0008000000003D0A0008715F00084A
:100040003D0A00083D0A00083D0A00083D0A000874
:100050003D0A00083D0A00083D0A00083D0A000864
:100060003D0A00083D0A00083D0A0008B94B000897
:10007000C54B00081D390008D14B0008DD4B0008B6
:10008000395A0008E94000083D0A00083D0A000806
:100090003D0A00083D0A00083D0A00083D0A000824
:1000A0003D0A00083D0A00083D0A00083D0A000814
:1000B000712401087D240108892401081D410008DC
:1000C0003D0A0008294100083D0A0008E11C01081A
:1000D000ED1C01086D58000899580008CD5800081B
:1000E0003D0A00083D0A0008000000003D0A000823
:1000F0003D0A00083D0A00083D0A00083D0A0008C4
:100100003D0A00083D0A000895240108F91C010871
:1001100001590008355900083D0A00083D0A000849
:100120003D0A00083D0A00081D1D0108511D010877
:100130006D5A00083D0A00083D0A00083D0A000803
:1001400000000000000000000000000000000000AF
:100150003D0A00083D0A00083D0A000869590008E8
:10016000354100083D0A0008815F0008A55F0008CE
:100170003D0A0008C95F00083D0A00083D0A000862
:100180003D0A00083D0A00089D590008D1590008A1
:10019000051D0108111D01083D0A00083D0A00085F
:1001A0003D0A00083D0A00083D0A00083D0A000813
:1001B000D94800083D0A00083D0A00083D0A000829
:1001C0003D0A00083D0A0008DD330008E933000855
:1001D0003D0A0008F53300083D0A00083D0A000802
:1001E0003D0A00083D0A00083D0A00083D0A0008D3
:1001F0003D0A00083D0A00083D0A00083D0A0008C3
:100200003D0A00083D0A00083D0A00083D0A0008B2
:100210003D0A00083D0A00083D0A00083D0A0008A2
:100220003D0A00083D0A00083D0A000800000000E1
:100230003D0A00083D0A0008000000003D0A0008D1
:100240003D0A00083D0A00083D0A00083D0A000872
:100250003D0A00083D0A00083D0A00083D0A000862
:100260003D0A00083D0A00083D0A00083D0A000852
:100270003D0A00083D0A0008055A00080000000079
:100280003D0A00083D0A00083D0A00080000000081
:08029000000000003D0A000817
:1002A00010B5054C237833B9044B13B10448AFF3B0
:1002B00000800123237010BD5806002400000000B8
:1002C000105E010808B5034B1BB103490348AFF3A7
:1002D000008008BD000000005C060024105E0108DC
:1002E00001F0FF01102A2BDB10F0070F08D010F8E7
:1002F000013B013A8B422DD010F0070F42B3F6D1EB
:10030000F0B441EA012141EA014122F007047FF003
:1003100000070023F0E80256083C85EA010586EA5A
:10032000010685FA47F5A3FA87F586FA47F6A5FA96
:1003300087F68EB9EED1F0BC01F0FF0102F00702A2
:1003400032B110F8013B013A83EA010313B1F8D14D
:100350000020704701387047002D06BF354603382E
:10036000073815F0010F07D1013015F4807F02BF67
:10037000013015F4C03F0130F0BC0138704700BFB8
:1003800081F0004102E000BF83F0004330B54FEA46
:1003900041044FEA430594EA050F08BF90EA020FB3
:1003A0001FBF54EA000C55EA020C7FEA645C7FEA46
:1003B000655C00F0E2804FEA5454D4EB5555B8BF69
:1003C0006D420CDD2C4480EA020281EA030382EADA
:1003D000000083EA010180EA020281EA0303362D6C
:1003E00088BF30BD11F0004F4FEA01314FF4801C3F
:1003F0004CEA113102D0404261EB410113F0004F51
:100400004FEA03334CEA133302D0524263EB430307
:1004100094EA050F00F0A780A4F10104D5F1200EA5
:100420000DDB02FA0EFC22FA05F2801841F1000100
:1004300003FA0EF2801843FA05F359410EE0A5F1D4
:1004400020050EF1200E012A03FA0EFC28BF4CF005
:10045000020C43FA05F3C01851EBE37101F00045BB
:1004600007D54FF0000EDCF1000C7EEB00006EEBC8
:100470000101B1F5801F1BD3B1F5001F0CD3490852
:100480005FEA30004FEA3C0C04F101044FEA4452A9
:1004900012F5800F80F09A80BCF1004F08BF5FEA30
:1004A000500C50F1000041EB045141EA050130BD10
:1004B0005FEA4C0C404141EB0101013C28BFB1F522
:1004C000801FE9D291F0000F04BF01460020B1FA6D
:1004D00081F308BF2033A3F10B03B3F120020CDA40
:1004E0000C3208DD02F1140CC2F10C0201FA0CF01E
:1004F00021FA02F10CE002F11402D8BFC2F1200C83
:1005000001FA02F120FA0CFCDCBF41EA0C01904038
:10051000E41AA2BF01EB0451294330BD6FEA040481
:100520001F3C1CDA0C340EDC04F11404C4F120026C
:1005300020FA04F001FA02F340EA030021FA04F37E
:1005400045EA030130BDC4F10C04C4F1200220FAD5
:1005500002F001FA04F340EA0300294630BD21FA13
:1005600004F0294630BD94F0000F83F4801306BFD9
:1005700081F480110134013D4EE77FEA645C18BFCD
:100580007FEA655C29D094EA050F08BF90EA020F64
:1005900005D054EA000C04BF1946104630BD91EA5C
:1005A000030F1EBF0021002030BD5FEA545C05D15F
:1005B0004000494128BF41F0004130BD14F580049E
:1005C0003CBF01F5801130BD01F0004545F0FE4112
:1005D00041F470014FF0000030BD7FEA645C1ABF47
:1005E000194610467FEA655C1CBF0B46024650EA7E
:1005F000013406BF52EA033591EA030F41F40021AA
:1006000030BD00BF90F0000F04BF0021704730B52F
:100610004FF4806404F132044FF000054FF0000104
:1006200050E700BF90F0000F04BF0021704730B5C5
:100630004FF4806404F1320410F0004548BF40429A
:100640004FF000013EE700BF42004FEAE2014FEAEF
:1006500031014FEA02701FBF12F07F4393F07F4FCA
:1006600081F06051704732F07F4208BF704793F0CD
:100670007F4F04BF41F40021704730B54FF46074E0
:1006800001F0004521F000411CE700BF50EA0102E3
:1006900008BF704730B54FF000050AE050EA01028C
:1006A00008BF704730B511F0004502D5404261EBFC
:1006B00041014FF4806404F132045FEA915C3FF43D
:1006C000D8AE4FF003025FEADC0C18BF03325FEADA
:1006D000DC0C18BF033202EBDC02C2F1200300FA8B
:1006E00003FC20FA02F001FA03FE40EA0E0021FAB0
:1006F00002F11444BDE600BF53B94AB9002908BF4E
:1007000000281CBF4FF0FF314FF0FF3000F094B9CC
:10071000ADF1080C6DE904CE00F026F8DDF804E038
:10072000DDE9022304B070479FED0B6B07EE900AE2
:100730009FED0B5BB7EEE77A27EE066BBCEEC66B60
:10074000B8EE464BA4EE457BFCEEC77B16EE101AC6
:1007500017EE900A704700BF000000000000F03D57
:10076000000000000000F0412DE9F047089D04461C
:100770008E46002B4DD18A42944669D9B2FA82F254
:1007800052B101FA02F3C2F1200120FA01F10CFA90
:1007900002FC41EA030E94404FEA1C48210CBEFBC8
:1007A000F8F61FFA8CF708FB16E341EA034306FB51
:1007B00007F199420AD91CEB030306F1FF3080F0E0
:1007C0001F81994240F21C81023E63445B1AA4B22D
:1007D000B3FBF8F008FB103344EA034400FB07F7CF
:1007E000A7420AD91CEB040400F1FF3380F00A8110
:1007F000A74240F207816444023840EA0640E41B05
:1008000000261DB1D4400023C5E900433146BDE8B0
:10081000F0878B4209D9002D00F0EF800026C5E952
:10082000000130463146BDE8F087B3FA83F6002E6A
:100830004AD18B4202D3824200F2F980841A61EBE2
:10084000030301209E46002DE0D0C5E9004EDDE700
:1008500002B9FFDEB2FA82F2002A40F09280A1EBE8
:100860000C014FEA1C471FFA8CFE0126200CB1FB3D
:10087000F7F307FB131140EA01410EFB03F0884236
:1008800008D91CEB010103F1FF3802D2884200F2C3
:10089000CB804346091AA4B2B1FBF7F007FB101155
:1008A00044EA01440EFB00FEA64508D91CEB0404F3
:1008B00000F1FF3102D2A64500F2BB800846A4EB4E
:1008C0000E0440EA03409CE7C6F12007B34022FA39
:1008D00007FC4CEA030C20FA07F401FA06F31C4368
:1008E000F9404FEA1C4900FA06F3B1FBF9F8200C75
:1008F0001FFA8CFE09FB181140EA014108FB0EF0BB
:10090000884202FA06F20BD91CEB010108F1FF3A0A
:1009100080F08880884240F28580A8F10208614416
:10092000091AA4B2B1FBF9F009FB101144EA014124
:1009300000FB0EFE8E4508D91CEB010100F1FF34CF
:100940006CD28E456AD90238614440EA0840A0FB67
:100950000294A1EB0E01A142C846A64656D353D03D
:100960005DB1B3EB080261EB0E0101FA07F722FA61
:1009700006F3F1401F43C5E9007100263146BDE88A
:10098000F087C2F12003D8400CFA02FC21FA03F3ED
:10099000914001434FEA1C471FFA8CFEB3FBF7F06E
:1009A00007FB10360B0C43EA064300FB0EF69E4293
:1009B00004FA02F408D91CEB030300F1FF382FD22C
:1009C0009E422DD9023863449B1B89B2B3FBF7F6D4
:1009D00007FB163341EA034106FB0EF38B4208D9AD
:1009E0001CEB010106F1FF3816D28B4214D9023EEE
:1009F0006144C91A46EA004638E72E46284605E70C
:100A00000646E3E61846F8E64B45A9D2B9EB0208DC
:100A100064EB0C0E0138A3E74646EAE7204694E76C
:100A20004046D1E7D0467BE7023B614432E730469F
:100A300009E76444023842E7704700BFFEE700BFA1
:100A40000B480C4A904203D0121A0B4913F06AFB70
:100A50000A480B4A904203D0121A002113F070FB8F
:100A600005F01CFD13F032FB00F02EFAFEE700BF8C
:100A70000000002454060024445E010858060024A7
:100A800034F30024704700BF704700BF000000002F
:100A90002DE9F04FC64C8246C64B8B4664689FEDED
:100AA000C67A2DED068B89B093ED008A0794C34C6E
:100AB0000292D4ED007A78EE677AF0EEE77AF4EEFF
:100AC000C77AF1EE10FA00F3BA81BD4EBD4D32780F
:100AD000BD4BBE49002A14BF2A461A46BC480192A3
:100AE0003278002A14BF0A46024600923278002A61
:100AF00008BF2B4605933378002B08BF0846B54B3B
:100B00001D68029B0690002B00F03481B24B00243C
:100B1000DFF8EC820493B14BDFF8E89203932EE008
:100B20009FEDAF0AB0EE406AB7EE007AD9ED006AE9
:100B3000A948013466EE807A37EE667A26EE860A98
:100B4000E8EE877AA7EE080AB0EE678A12F096FD03
:100B5000049BA248B0EE480A93ED0C8A12F08EFD79
:100B6000DBF80020DBF8043003993A443B44096B7E
:100B700082ED008A1960029BA34200F0FB80DAF844
:100B80000030A700DAF8042003EB8403019902EB9C
:100B90008402186801EB85010860D2ED008A009A92
:100BA00002EB85020135C2ED008A8E4A95422AD9B0
:100BB00031780120834D81F00101DFF80CC23170E2
:100BC0008949087031788248002914BF2946614656
:100BD00096F800E001917D49BEF1000F08BF014683
:100BE00096F800E000916146BEF1000F08BF29466B
:100BF0003578059101467548002D08BF014600254E
:100C000006917A490A6093ED008A98F80030002B2B
:100C100086D0754B1B78002B82D0D8ED027A9FEDE1
:100C2000747AF4EEC77AF1EE10FAC0F2EF80C7EEF4
:100C3000876AFBFE666AE6EEC77ABCEEE77A694928
:100C4000059817EE103AB8EE477A5A1C77EEC77A35
:100C50008A4288BF5A1A059901EB830191ED007A07
:100C6000069901EB830393ED009A00EB820301EBFD
:100C7000820293ED006AD2ED006A36EE476AD8F838
:100C8000043076EEC96AD8F81020012BA7EE867AD8
:100C9000A7EEA69AB0EE47AAF0EE499A40F2CC80B1
:100CA00007EE902A013BB6EE009AB8EE676A07EEAF
:100CB000103A9FED3D5BB7EEC66AB8EE477A26EE76
:100CC000056BB7EEC77A86EE070BB7EEC00B12F0D6
:100CD000EBFDF7EE007A37EEC00A20EE099AF7EE48
:100CE000007A98ED060A77EEC07AF5EE407AF1EEDA
:100CF00010FA00F1CE80F1EEE7AAB5EE400AF1EE6F
:100D000010FA00F1CF80B1EEC05AD8ED056A9FED20
:100D1000340AD8F81020D8ED034A29EE0A7AD8ED23
:100D2000087AB0EE406ADFED325A29EE299AD8F8F7
:100D3000043027EE267A29EE269AA7EE2A6A07EED5
:100D4000102A0132B8EE477AA9EE050AC8F8102039
:100D5000E7EE247AF4EEE57AF1EE10FAA8BF77EE2A
:100D6000E57A9A42C8ED027AFFF4DEAE002388F8F5
:100D70000030D9E6174A0E4B156007985B681D498D
:100D80001B1A1D4A0B601168994200D213601B4A5E
:100D90001168994200D9136009B0BDEC068BBDE81B
:100DA000F08F00BFAFF30080182D4454FB21194091
:100DB000001000E02000002495BFD633100000246E
:100DC00048000024002823C000B80BC0007017C0E2
:100DD000000000C0149A00248C060024DC060024C5
:100DE00000000000FFED02002C0700243007002463
:100DF00000803B4884060024880600241400002458
:100E0000240000240C00002426886640F5EEC07AF9
:100E1000F1EE10FA7FF511AFB1EE676AC6EE076A20
:100E2000FCEEE66A16EE903A013306EE903AF8EEE2
:100E3000666AE6EE877A00E7B7EE009A4FE7B5EE0E
:100E4000C08AF1EE10FA21D4F7EE007AB4EEE78A08
:100E5000F1EE10FA2BDD5FED140AB2EE040ACDEDCF
:100E6000000A12F051FE154880ED130A12F06AFCD8
:100E7000DDED000AB2EE040A12F046FE104880EDE5
:100E8000130A12F05FFC84ED008A1EE6DFED0D0A06
:100E9000E3E7B0EE670A13F0D1F8F0EE40AA98ED60
:100EA000060A2AE713F0CAF8B0EE405A2DE7F0EE32
:100EB000007ADFED040AE8EE270ACEE78C0600246C
:100EC000DC0600244D10CD3F00212DE9F04FC54C2C
:100ED0000D46C54F2046C54EDFF8A883DFF8A8B3FE
:100EE0002DED048B89B000F031FC284602F0E6F8C5
:100EF000BF4802F0D5F804F1120000F0B1FFBD4A7E
:100F000038469FEDBD0AD2F8FC3043F08073C2F83A
:100F1000FC30BA4B5D601A6842F001021A6012F0B0
:100F200089FB38469FEDB60A12F070FC9FEDB20ABD
:100F30003046C7F84C8012F07DFB9FEDB10A304679
:100F4000B04F12F063FC03212046C6F84C8000F03D
:100F500025FB3021204600F009FB204600F036FB3F
:100F6000A94A2946A94813F0EBF8A74A2946A848F8
:100F700013F0E6F8A44A2946A64813F0E1F8A24A7D
:100F80002946A54813F0DCF80122A449B7EE000A6F
:100F9000A34B04F1D8009FED9A1A0D601A70F0EE81
:100FA000410AA04B1D7002F001F92046059500F0A2
:100FB0002DFB9D49204600F0D7FA9C4802F070F8BE
:100FC000636F9B4ACBF800309A4B1B7852F8233062
:100FD000994A13609CE094F84430002B00F056814D
:100FE000616E002900F05281944A1368194418294F
:100FF00040F3368218211160914802F051F8914B6C
:10100000DBED007A1B78002B40F0D08077EEE76AAA
:101010009FED8D7A8D4BE6EE877AC3ED007A3B78B3
:10102000CBED007A002B40F057819FED751AB7EE9B
:10103000000A8748F0EE410A02F0B8F8694800F06B
:10104000E5FA05F043F8059BC31AB3F57A7F5CD344
:10105000804B4FF0000A804A1D6812680590614875
:10106000069200F099FA6421064653463246A5FBE3
:101070000101FFF741FB07905A4800F0A5FA10EE76
:10108000100AFFF751FBA0FB0520744B05FB010183
:1010900090004FEA810C80184CEA927C41EB0C0CDA
:1010A0004FEACC0C4CEA507CC000801A6CEB010C6F
:1010B0004FEA0C1C4CEA107C00018018A6FB0323AD
:1010C00041EB0C01090141EA10710001FFF714FB2B
:1010D0008146884664220023FFF70EFB002302921C
:1010E000484664224146FFF707FB079A33460699B4
:1010F000CDE900202A465A4801F0D2FF554B594A03
:10110000C3F800A04FF0FF331360012004F0E0FFAC
:10111000344800F05FFA334800F068FA94F84C3035
:101120007BB194F852307F2B0BD1397881F00101DB
:101130003970002940F05981424B1A784A4801F031
:10114000AFFF3B787BB1494B94ED257AD3ED007A24
:10115000DFED476A37EE677AE7EE267AC3ED007A6D
:10116000444BC3ED007A94F8BA30FF2B424B00F0A9
:1011700090801B7823B1414B1B78002B00F04481F9
:1011800000233D4A13703E4A13603C4A137094F8A2
:10119000C43023B194F8CA307F2B00F0A780294BCC
:1011A0001B78002B3FF417AFDBED007A94ED1D7A2E
:1011B000DFED256A37EE677A244BE7EE267AC3ED3A
:1011C000007A3B78CBED007A002B40F085809FEDD4
:1011D0000C1AF7EE000A1E48B0EE410A01F0E6FFD5
:1011E0002CE700BF340700248C060024DC06002412
:1011F0005055010800ED00E000803B47001000E082
:10120000000000007406002400B80B00002823C072
:10121000007017C000B80BC0000000C0149A002472
:10122000480000242C070024910A0008A855010852
:10123000CC560108180000241C000024800600245D
:1012400070560108750600248FC2753D20000024E9
:101250000C080024880600248406002400389C1C06
:101260008456010814000024F855010808000024E1
:101270000AD7A33D0C0000247C0600247D06002430
:101280007806002400007A4404000024DBED007A94
:10129000BCE61D78002D00F0AD80784B1D78002D48
:1012A0007FF475AF04F012FF754B1B68C01AB0F5E0
:1012B000487FFFF46CAF734B197881F0010119700E
:1012C000002900F0D58001216C4B2A463D70197031
:1012D0006D4801F0E5FE5AE7DFED6C0AB7EE001A43
:1012E0006B48B0EE600A01F061FFA7E6D4ED1D6A1D
:1012F0009FED687ADFED687A9FED689AE6EE877A6F
:101300006748B0EE678A00F05FF9C0EE097A654B76
:1013100063481D68D4ED258A67EE887AFCEEE77A8B
:1013200017EE906A022E38BF022600F04DF95E4B90
:101330001B78002B7DD080EE097A07EE905A5B4B2C
:101340005B4D1B68F8EE677A013367EE877AFCEE37
:10135000E77A17EE902A022A38BF022207EE902A77
:10136000A5FB03125349F8EE677A120B01FB123307
:1013700067EEA87AFCEEE77A17EE902A1A44134635
:10138000A5FB03252D0B01FB15354B4BF2EE087A1F
:10139000B0EE000AD3F8008007EE108AF8EEC70A14
:1013A000C0EEA70A12F0B0FB444A07EE905A43463B
:1013B000114682ED030A56603246F8EEE77A084697
:1013C000CD6129460546C0ED087AC0ED027A4FF09E
:1013D0007E5068614FF07C50A86101202870002089
:1013E0002861374801F05CFED9E60022254B012137
:1013F0001A70A3E60123334A137004F067FE1F4BF3
:101400001D701F4B1860C2E62F4D304A2B783048B4
:101410000133A2FB031202F4FF7101EB52029B1A8B
:101420002C4A2B7052F823101E4B196001F038FE25
:10143000A6E6DFED297A294B68EEA77A1D68284BCE
:10144000FCEEE77A17EE902A2A449A4215469CD978
:10145000174BA3FB0523174A1B0B02FB135594E7FD
:1014600011F1180F144BB8BF6FF017011960C3E5E5
:10147000024A012313703A782AE700BF7D06002450
:1014800078060024750600241456010800000000A8
:101490000C080024000070440000204200007A4440
:1014A000340700241C0000242C07002430070024EB
:1014B000F119760500EE02008006002424000024C5
:1014C000505601087C06002418000024ABAAAAAAE2
:1014D00030560108CC56010800803B48149A00247D
:1014E000FFED020038B5184C002504F5C0702560EA
:1014F00065612562E56301F017FE144940F20F7340
:10150000C4F89051C4F8381204F51471A4F83C32B0
:1015100040F20113C4F848522046C4F84C520C4A19
:10152000C4E990130B4912F0B7F90B4C0B480C4966
:10153000074AC46412F0B0F90A48054AC46408496D
:10154000BDE8384012F0A8B9340700240080707F4D
:1015500000000024850A000800007A448C0600245C
:10156000890A0008DC06002400F086B938B5044674
:1015700000F0A6F9D4F8A850204600F0C3F9284698
:1015800001F07AFCD4F8AC50204600F0BBF92846B4
:10159000BDE8384001F070BC00F0AEB938B5044683
:1015A00000F06EF9D4F8A850204600F0ABF92846B8
:1015B00001F062FCD4F8AC50204600F0A3F92846B4
:1015C000BDE8384001F058BC00F076B9183002F0A0
:1015D00039B900BF10B50446683001F029FC04F1A8
:1015E0008800BDE8104001F023BC00BF10B50446E0
:1015F000403001F09DFC04F1B00001F02FFE04F139
:10160000C000BDE8104001F029BE00BF10B504467F
:10161000D83001F0FBFD04F59670BDE8104001F0F4
:10162000F5BD00BFF0B54FF481718FB000F1D80760
:1016300001254FF4C0624FF4E063ADF8081000F5E7
:10164000967402993846ADF80C2008AEADF810300B
:101650000095DDE9032301F081FD40F201134FF411
:1016600080722046ADF814304FF4806305990095E0
:101670000BADADF81820ADF81C30DDE9062301F004
:101680006DFD3046072105F0DBFB96E8070085E895
:1016900007002946384601F0A3FD96E8070085E8D3
:1016A00007002946204601F09BFD384601F0AEFDBB
:1016B00020460FB0BDE8F04001F0A8BD2DE9F04193
:1016C00040F2024304460222002504F1180704F107
:1016D000A8062DED028B8EB09FED1B8AADF80C3065
:1016E00005A8039901F08CFE02220DF12600ADF849
:1016F0001020049901F084FE0423022205A9384633
:1017000001F092FE04F1680204F18803C4E92A237F
:101710002946384656F8048B02F0AAF801462046BE
:10172000019100F0EFF80023F0EE480A01994046DD
:101730001A4601F04BFB25B10EB0BDEC028BBDE8A3
:10174000F0810125E4E700BF6F12033B2DE9F04172
:1017500004469AB00027019100F08CF801992046C8
:1017600000F090F940F6061304F1B0069FED400A30
:10177000ADF8143004F1C0053046059901F054FD70
:101780004FF4007328469FED3A0AADF8183004F57F
:10179000C878069901F048FD40F6033240F2016333
:1017A0009FED330AADF8082004F140000299ADF82E
:1017B0000C70C4F8D0600FAEC4F8D45007ADADF8CB
:1017C0001030DDE9032301F083FB2046FFF72AFFF9
:1017D0002046FFF773FF284601F0A6FC01230DF118
:1017E0002C0E04F5C07C1593189347F61223169718
:1017F00019930223179395E80F008CE80F008EE8E9
:101800000F0086E80F00BDF840301490ADF84E3060
:10181000BDF84230D4E9625EADF84C30C4E9655E93
:10182000BEF1000F04D072463946284612F088FCFB
:1018300013A9404604F0D0F904F5D27001F088FCF9
:101840003021204600F03CF8D4F8A850204600F0A3
:1018500059F8284601F010FBD4F8AC50204600F0AF
:1018600051F828461AB0BDE8F04101F005BB00BFB1
:1018700000000000704700BF143001F073BA00BFD1
:1018800038B500F1140504462DED028B284601F011
:1018900025FA284601F01EFA2846B0EE408A01F0EB
:1018A00007FAD0ED007AF8EE677A88EE277ABDEC79
:1018B000028B84ED0E7A38BD143001F00BBA00BFF4
:1018C00038B500F1140504462DED028B284601F0D1
:1018D000F3F9284601F0FEF92846B0EE408A01F0FF
:1018E000E7F9D0ED007AF8EE677A88EE277ABDEC5A
:1018F000028B84ED0E7A38BD08B5143001F0D8F9AA
:10190000006808BD90ED0E0A704700BF10B540F2A8
:1019100003338EB000244FF60B7240F20341ADF852
:10192000083009A80123ADF81020ADF82420224684
:10193000ADF80C100094029907940C94CDE905447D
:10194000CDE90A4402F096F804A80123224603993F
:10195000009402F08FF809A802F072F910B9012082
:101960000EB010BD04A802F06BF9A0420CBF02201B
:1019700020460EB010BD00BF2DE9F04103239AB000
:10198000012700240646CDE914373B4BCDE910432F
:1019900040F20453CDE91647ADF84830FFF7B6FFE3
:1019A000B842054625D0022845D040F60132334BD7
:1019B0000DF12C081894ADF82C200B981997CDF840
:1019C0004A3000F0E3F810A906F13C0003F080F97A
:1019D000302003224FF07E5341460D930E93CDE904
:1019E0000B02F26B06F1140001F02AF91AB0BDE8FF
:1019F000F0811023214A06A906908DF828300DF1B8
:101A00002C081F4BCDF84A2007930294CDE9180407
:101A1000CDE9080402A802F093FB0823029A03A967
:101A20004046ADF80C508DF80E40049505930B948C
:101A300000F0ECF8C7E700200121104B0DF12C0855
:101A40003A460094CDF84A304FF60B730C94ADF83B
:101A50002C302346CDE9180140F601314046ADF85F
:101A600018100699CDE90D4402F004F821464046CD
:101A700002F0F2F8A7E700BF04020404040604031E
:101A80000704010B2DE9F04704462DED028B82B0CF
:101A900000294DD0012140F2011200230091ADF840
:101AA00004208DF80630364A0127364B04F104092C
:101AB000354904F12908626040F20272A36040F6E1
:101AC0000663E16004F1250AA4F82520A4F8293072
:101AD000278284F8277084F82B7004F095FC054663
:101AE00004F0F8FA6946064650BB4DB304F13000E5
:101AF0008DF8067004F010FC072D3CD104F114059C
:101B00002046FFF739FF284601F0E4F82846B0EEFA
:101B1000408A01F0CDF8D0ED007AF8EE677A88EED1
:101B2000277A84ED0E7A02B0BDEC028BBDE8F08717
:101B300040F2011300918DF80610ADF80430B2E7C1
:101B400004F1300004F0E8FB072D11D0494620468F
:101B500002F03EFD0EB9002DD0D1504602F086F8BD
:101B6000404602F083F804F1120000F079F9C5E76D
:101B7000002EF2D1C2E74946204602F029FDBDE71A
:101B80000508050905070506050A060610B584B00F
:101B900003460124ADF8040003A8ADF80C30ADF8FD
:101BA0000E4002F063F8214603A802F049F92046EE
:101BB00004F08EFA002103A802F042F9204604F056
:101BC00087FA214603A802F03BF904B010BD00BF1C
:101BD00010B5C2F3002384B00C46017C8DF80D20B3
:101BE00043EA4402FA2402238DF80C2003AA00944D
:101BF00002F03CFB18B10124204604B010BD04469D
:101C00000A2004F065FA204604B010BD034670B502
:101C100043F8042B044684B007C983E80700A3797E
:101C200083B91A210B461E22FA2523742046ADF8EB
:101C30000C20022303AA009502F018FB28B1012012
:101C400004B070BD1B210B46EDE70A2004F040FAFA
:101C50004FF4B85200950223ADF80C20204603AA99
:101C6000217C02F003FB0028E9D10A2004F030FABD
:101C700041F2027200950223ADF80C20204603AA1F
:101C8000217C02F0F3FA0028D9D10A2004F020FACE
:101C9000042200950223ADF80C20204603AA217CE3
:101CA00002F0E4FA0028CAD10A2004F011FA062250
:101CB00000950223ADF80C20204603AA217C02F0F7
:101CC000D5FA0028BBD10A2004F002FA41F208221A
:101CD00000950223ADF80C20204603AA217C02F0D7
:101CE000C5FA0028ABD10A20064604F0F1F90095A8
:101CF000022303AA217C2046ADF80C6002F0B6FA5C
:101D000000289CD1304604F0E3F9009522790C2399
:101D10002046002A8DF80C3003AA4FF0020314BFAE
:101D2000622142218DF80D10217C02F09FFA0028DB
:101D300085D1304604F0CCF92279D4E902310B4345
:101D4000DBB20AB943F0400362790AB143F02003E1
:101D50000E22FA258DF80D302046009502238DF8CD
:101D60000C2003AA217C02F081FA00287FF467AFDF
:101D70000A2004F0ADF9102200950223ADF80C20E2
:101D8000204603AA217C02F071FA00287FF457AFA5
:101D90000A2004F09DF9122100950223ADF80C10E1
:101DA00003AA217C204602F061FA00287FF447AFA5
:101DB0000A2004F08DF9012209212046FFF708FFCF
:101DC000003818BF01203BE7F0B5102387B0234C43
:101DD000012200250126002702A920460195CDE910
:101DE00002234FF48052CDE904670BF0ADFD64206F
:101DF00005F058F902A94FF480522046CDE9046756
:101E000002261027CDE902670BF09EFD0322102366
:101E100002A92046CDE9022300230422CDE90423B0
:101E20004FF480520BF090FD40F23223042202A9BD
:101E3000019310232046CDE90223019A0123059244
:101E40004FF4805204930BF07FFD40F606012046CC
:101E50000BF09AFD284607B0F0BD00BF209A002481
:101E60001C4B00221C494FF0400C30B5054689B090
:101E70000220596007219A601A620124DA620A225C
:101E80004FF4006EDC6006922022CDE900010420B0
:101E90000821CDE9020103201021CDE90401082029
:101EA0006946C3E904024FF4C072181DC3E906C2B3
:101EB0004FF48052C3E909E20BF01CFD38B9284603
:101EC000FFF782FF003818BF012009B030BD20465F
:101ED00009B030BD1C9A002440410052614A0021E3
:101EE000D0B513688EB00A91002B40F0B9805E4BDC
:101EF00001214FF683700C2411600221D3F8D42005
:101F00000026032742F48052C3F8D420D3F8D4200B
:101F100002F480520092009AD3F8E02042F01002BE
:101F2000C3F8E020D3F8E02002F010020192019AF9
:101F3000D3F8E02042F04002C3F8E020D3F8E020DC
:101F400002F040020292029AD3F8E02042F0080226
:101F5000C3F8E020D3F8E02002F008020392039ACD
:101F6000D3F8E02042F48072C3F8E020D3F8E020F8
:101F700002F480720492049AD3F8E02042F08002C6
:101F8000C3F8E020D3F8E02002F080020592059A21
:101F9000D3F8E02042F02002C3F8E020D3F8E0209C
:101FA00002F020020692069AD3F8E02042F00402E2
:101FB000C3F8E020D3F8E0300C9403F00403079357
:101FC0000323079A0B93CDE9080108A9274806F0D7
:101FD000EFFE48F23712022308A925480C94CDE9F8
:101FE0000823CDE90A6706F0E3FE4CF203720223F0
:101FF00008A920480C94CDE90823CDE90A6706F02A
:10200000D7FE40F2FF62022308A91B480C94CDE9D9
:102010000823CDE90A6706F0CBFE4FF60C720223C7
:1020200008A916480C94CDE90823CDE90A6706F003
:10203000BFFE4FF63F02022308A911480C94CDE9D8
:102040000823CDE90A6706F0B3FE2022022308A97F
:102050000A480C94CDE90A67CDE9082306F0A8FEEA
:102060000EB0D0BD189A0024004402580010025847
:1020700000180258000C025800200258001C025898
:10208000001402582DE9F04FDFF8108406460D4683
:10209000144608F118002DED028B89B000AF02F054
:1020A0000FFFD8F8183073B3D8F81C30D8F8049064
:1020B000002B43690BBF4FF0080A4FF0100A4FF096
:1020C000020B4FF0040BB9F1000F2AD0A200EA4630
:1020D000012B02F1070222F00702ADEB020D684668
:1020E000ADEB020D694600F03F81022B00F0D68077
:1020F000002B6FD02246C847D5462437BD46BDECDD
:10210000028BBDE8F08FD8F81C30002BF5D0D8F842
:1021100004904FF0080A4FF0020B4369B9F1000F29
:10212000D4D1FB61D8F80030BB61002BE5D0D54895
:1021300002F038FF6B46BBF1020F786108EE103AEF
:10214000FB6900F083816A465146A2EBC4029546C2
:102150006200EA46B2FBFBF2AAEBC40085460AEB3A
:102160008200EE46F861ADEB010DF8690EEB820CD2
:10217000C7F810C0EC46ADEB010D00EB8201CCF8C6
:102180000400CCF8081001EB82013869E946CCF86C
:102190000C1000EB8201CCF800A001EB8202C9E92F
:1021A00000E0C9E90212012B00F06483022B00F069
:1021B0006C82002B00F08081620849466046BB6952
:1021C000984718EE103A24379D46BD46BDEC028B69
:1021D000BDE8F08F002C8DD01A46D8ED0C6A9FED2B
:1021E000B27A8446331D36F922E00CF1080C07EE72
:1021F00090EA33F922E00232F8EEE77A944267EE91
:10220000877A67EEA67A4CED027A07EE90EAF8EE4E
:10221000E77A67EE877A67EEA67A4CED017AE2D824
:10222000F9612246C847984ED8ED0D6A0020F96939
:102230002B1D9FED9E7A9FED9E6ADFED9E5A22E058
:10224000F4EEC67AF1EE10FAC0F2C88447F6FE72D8
:10225000D1ED017A45F8202066EEA77AF4EEC77A30
:10226000F1EE10FA40F2F080F4EEC67AF1EE10FAD8
:10227000C0F2D58447F6FE7243F8202002300831C0
:1022800084427FF639AFD1ED007A66EEA77AF4EE9C
:10229000C77AF1EE10FAD3D83246D9E7002C3FF4D2
:1022A00029AFD8ED0C6A84469FED787A0022331D61
:1022B0008E4656F822100CF1080C07EE901A53F8CF
:1022C00022100232F8EEE77A944267EE877A67EEE0
:1022D000A67A4CED027A07EE901AF8EEE77A67EEEE
:1022E000877A67EEA67A4CED017AE2D871462246EB
:1022F000C7F81CE0C847664ED8ED0D6A0020F969A2
:102300002B1D9FED6A7A9FED6A6ADFF894C120E089
:10231000F4EEC67AF1EE10FAC0F279843246D1EDCD
:10232000017A45F8202066EEA77AF4EEC77AF1EE3E
:1023300010FA40F28780F4EEC67AF1EE10FAC0F29D
:102340005E84324643F820200230083184427FF612
:10235000D3AED1ED007A66EEA77AF4EEC77AF1EE4D
:1023600010FAD5D86246DAE7002C3FF4C3AED8EDB8
:102370000C6A86469FED477A4FF0000C331D56F8E5
:102380002C200EF1080E82F40002A2F5000207EEE6
:10239000902A53F82C200CF1020CF8EEE77A82F424
:1023A00000026445A2F5000267EE877A67EEA67A1E
:1023B0004EED027A07EE902AF8EEE77A67EE877A1A
:1023C00067EEA67A4EED017AD9D8F9612246C84760
:1023D000314ED8ED0D6A0020F9692B1D9FED337A3F
:1023E0009FED336ADFF8BCC01FE0F4EEC67AF1EE71
:1023F00010FAC0F2FC833246D1ED017A45F8202074
:1024000066EEA77AF4EEC77AF1EE10FA18D9F4EE78
:10241000C67AF1EE10FAC0F2DA83324643F8202091
:102420000230083184427FF667AED1ED007A66EE65
:10243000A77AF4EEC77AF1EE10FAD6D86246DBE757
:102440006246EBE762467DE7324615E7A100D646D5
:102450006208073121F00701ADEB010DEA46ADEB53
:10246000010D6946ADEB0E0D0AEB8200EC46ADEBBB
:102470000E0D01EB8202F861E946CCE900A0C9E942
:10248000001290E6709A00240280FFFF00000030E6
:102490000082FF7F0000003482FF7F00549A0024F6
:1024A000007E00807E0080FF0000003804FF7FBFB8
:1024B00004FF7F3F00FEFF46002C00F0C982BBF105
:1024C000020FD8F8242000F0FA827969C7F8049046
:1024D00002EB810E5FED0C5A8A00DCF808100EF159
:1024E00004007A611A46DCF80C303B61331DD7F8E2
:1024F00010903D61FD69C7E902CB8C46834636F9F1
:102500002210D8ED0C7A06EE101A33F9221006EEDE
:10251000901A3EF92210B8EEC66A07EE101AF8EECD
:10252000E66A3BF92210B8EEC77A26EE256A66EE17
:10253000A56A27EE257A26EE276A66EEA76A27EEB9
:10254000277A07EE901A51080232F8EEE77A0AEB82
:102550008100944280ED006A05EB810067EEA57A68
:10256000C0ED006A0CEB810009EB810180ED007A7F
:1025700098ED0C7A67EE877AC1ED007ABFD8D7F86C
:1025800004903D69D7E902CB60466208BB694946C1
:102590009847D8F82C307A69D8ED0D6A1A441FEDA7
:1025A0003D7A1FED3D6A2B1D904602F1040A5FED56
:1025B0003F5A0022A84ED9E900EC51E0F4EEC67A69
:1025C000F1EE10FAC0F2C78247F6FE7045F822001D
:1025D0000CEB0100D0ED007A66EEA77AF4EEC77A34
:1025E000F1EE10FA4BD9F4EEC67AF1EE10FAC0F221
:1025F000BA8247F6FE70BBF1020F43F822002BD0DF
:10260000D9F808000844D0ED007A66EEA77AF4EE17
:10261000C77AF1EE10FA36D9F4EEC67AF1EE10FA76
:10262000C0F2CD8247F6FE7048F82200D9F80C00BF
:102630000144D1ED007A66EEA77AF4EEC77AF1EEA6
:1026400010FA1ED9F4EEC67AF1EE10FAC0F2AF829B
:1026500047F6FE714AF82210023294427FF6B1AD7D
:1026600051080EEB81008900D0ED007A66EEA77A62
:10267000F4EEC77AF1EE10FAA0D83046A6E730465D
:10268000B9E73146E6E73046CEE7002C00F0E081BE
:10269000BBF1020FD8F8243000F0E1817A69DCF850
:1026A000081003EB820EC7F804909300DFED6B5A1D
:1026B0000EF1040000227B61DCF80C303B61331D1D
:1026C000D7F810903D61FD69C7E902CB8C4683467F
:1026D00056F82210D8ED0C7A07EE101A53F8221093
:1026E000B8EEC76A07EE101A5EF82210F8EEC76A55
:1026F00007EE101A26EE256A5BF82210B8EEC77AAC
:1027000066EEA56A26EE276A27EE257A66EEA76AA8
:1027100027EE277A07EE901A51080232F8EEE77A90
:102720000AEB8100944280ED006A05EB810067EEC0
:10273000A57AC0ED006A0CEB810009EB810180ED08
:10274000007A98ED0C7A67EE877AC1ED007ABFD8EF
:10275000D7F804903D69D7E902CB60466208BB69AF
:1027600049469847D8F82C307A69D8ED0D6A1A4452
:102770009FED3E7A9FED3E6A131D9246DFF8E4C05E
:102780000022FB612B1D364ED9E9008E4EE0F4EE9F
:10279000C67AF1EE10FAC0F2FC81304645F822000C
:1027A0000EEB0100D0ED007A66EEA77AF4EEC77A60
:1027B000F1EE10FA49D9F4EEC67AF1EE10FAC0F251
:1027C000EF813046BBF1020F43F822002AD0D9F83E
:1027D00008000844D0ED007A66EEA77AF4EEC77AD6
:1027E000F1EE10FA35D9F4EEC67AF1EE10FAC0F235
:1027F000C98130464AF82200D9F80C000144D1EDD5
:10280000007A66EEA77AF4EEC77AF1EE10FA1ED9D6
:10281000F4EEC67AF1EE10FAC0F2AD813146F869F5
:1028200040F82210023294427FF6CBAC510808EBFC
:1028300081008900D0ED007A66EEA77AF4EEC77ABF
:10284000F1EE10FAA3D86046A8E76046BAE7614601
:10285000E5E76046CEE700BF0280FFFF00000030E2
:102860000082FF7F007E00800000003404FF7FBFF5
:1028700004FF7F3F002C00F0EB807A690021D8F83C
:102880002430C7F8109003EB820ED7F81C90930009
:10289000FD610EF104021FED0C6A7B61331D1546CC
:1028A00056F821204808D8ED0C6ABBF1020F82F4DB
:1028B0000002A2F5000207EE902A53F8212082F4CC
:1028C0000002B8EEE77AA2F5000227EE067A07EEDC
:1028D000902A0AEB8002F8EEE77A27EE267A67EE76
:1028E000867A82ED007A09EB80024FEA800067EE7B
:1028F000A67AC2ED007A27D05EF8212082F4000289
:10290000A2F5000207EE902A55F8212082F4000279
:10291000B8EEE77AA2F5000227EE067A07EE902AD3
:10292000DCF80820F8EEE77A024427EE267A67EE14
:10293000867A82ED007A98ED0C7ADCF80C2067EE4E
:10294000877A0244C2ED007A02318C42A8D8D7F8C7
:10295000109060466208BB694946FD699847D8F8FF
:102960002C307A69D8ED0D6A1A441FED407A1FEDBC
:10297000406A131D9246DFF8C4C20022FB612B1D82
:10298000AB4ED9E9008E4EE0F4EEC67AF1EE10FAC5
:10299000C0F2C580304645F822000EEB0100D0EDB4
:1029A000007A66EEA77AF4EEC77AF1EE10FA49D90A
:1029B000F4EEC67AF1EE10FAC0F2BF803046BBF1F9
:1029C000020F43F822002AD0D9F808000844D0EDBD
:1029D000007A66EEA77AF4EEC77AF1EE10FA35D9EE
:1029E000F4EEC67AF1EE10FAC0F2AE8030464AF844
:1029F0002200D9F80C000144D1ED007A66EEA77AE6
:102A0000F4EEC77AF1EE10FA1ED9F4EEC67AF1EEC2
:102A100010FAC0F28B803146F86940F82210023279
:102A200094427FF6CEAB510808EB81008900D0EDCF
:102A3000007A66EEA77AF4EEC77AF1EE10FAA3D820
:102A40006046A8E76046BAE76146E5E76046CEE73C
:102A5000224649466046BB699847FFF7B2BBC7F8B4
:102A600010B0002298ED0C6A331DDFED726AD7F8C2
:102A70001CB0786956F8221007EE901A53F822100D
:102A8000B8EEE77A07EE901A51080232F8EEE77ACC
:102A900027EE267A0AEB810E94420BEB810167EE5A
:102AA000A67A27EE067A67EE867A8EED007AC1ED79
:102AB000007ADFD88300D7F810B07B614DE61A4664
:102AC000C7F810B098ED0C6A331DDFED5B6AD7F8DC
:102AD0001CB0786936F9221007EE101A33F922106B
:102AE00007EE901AB8EEC77A51080232F8EEE77A8C
:102AF00027EE267A0AEB810E94420BEB810167EEFA
:102B0000A67A27EE067A67EE867A8EED007AC1ED18
:102B1000007ADFD88300D7F810B07B6134E5F0EE9F
:102B2000675AFEEEE45A15EE900A34E7F0EE675A63
:102B3000FEEEE45A15EE901A6EE7F0EE675AFEEEDE
:102B4000E45A15EE900A3AE7F0EE675AFEEEE45AC0
:102B500015EE900A4BE767EEA57AFDEEE77A17EEE1
:102B6000900A00B232E567EEA57AFDEEE77A17EE3D
:102B7000900A00B23FE5F0EE675AFEEEE05A15EE1D
:102B8000901A4CE6F0EE675AFEEEE05A15EE900A07
:102B900030E6F0EE675AFEEEE05A15EE900AFDE5DB
:102BA000F0EE675AFEEEE05A15EE900A0AE667EE7E
:102BB000A57AFDEEE77A17EE901A09B24AE567EEBC
:102BC000A57AFDEEE77A17EE900A00B22CE5F0EE5A
:102BD000675AFEEEE45A15EE902A1FE467EEA57AD6
:102BE000FDEEE77A17EE902A12B2FFF731BBF0EE56
:102BF000675AFEEEE45A15EE902AFFF7FDBBF0EEA1
:102C0000675AFEEEE05A15EE902AFFF79BBBF0EEF6
:102C1000675AFEEEE05A15EE902AFFF780BB67EE8A
:102C2000A57AFDEEE77A17EE902A12B2FFF724BBE1
:102C300082FF7F0000000030000000387E0080FF2F
:102C400030B5184C154685B0046004F1080EEC460A
:102C50000FC98EE80F00D4ED047AF5EEC07A8CE847
:102C60000F00F1EE10FA1ADDB7EE006A94ED057A66
:102C700027EE277AC6EE276A84ED0D7AC4ED0C6A3A
:102C80006DB1204640F8185F02F01AF90649036951
:102C90000020064A2162A262E36005B030BD012037
:102CA00005B030BD549A00240020003000000030F0
:102CB00000680830704700BFB1F5807F03680A469E
:102CC00028BF4FF48072B1F5807F9A6094BF0020D6
:102CD000012070470068183002F052B970B50468DE
:102CE0008AB0A369E160CBB104F11805284602F06F
:102CF000E7F88446EE46E668BCE80F00AEE80F0051
:102D0000BCE80F00AEE80F009CE803008EE803006B
:102D100069462846049601F0DBFFF8B9E069D8B1AE
:102D200004F11C05284602F0CBF88446EE46E46820
:102D3000BCE80F00AEE80F00BCE80F00AEE80F00E3
:102D40009CE803008EE8030069462846049401F0DD
:102D5000BFFF003818BF01200AB070BD01200AB0C3
:102D600070BD00BF30B5046883B00D46E3694BB158
:102D7000A3680020E26A616A9B00009004F11C00D5
:102D800002F0A0F8A3680748A26A9B00216A00909D
:102D900004F1180002F096F80020C4E9005003B0D6
:102DA00030BD00BF8520000810B4074B4FF07E51A6
:102DB00030240022032019619C60D8605DF8044B28
:102DC0005961C3E906227047549A0024F6EE007A4E
:102DD0009FED166A20EE207A0160F7EE006A80ED22
:102DE000036A80ED020A27EE277AC6EE877AF4EEB0
:102DF000E67AF1EE10FA11DDF0EE667A4FF07E51D0
:102E00004FF0000C02760022C0ED017AC0F814C029
:102E1000016143768276C0ED070A7047F4EEC67A08
:102E2000F1EE10FAEAD5F0EE467AE7E7000000008E
:102E30000268037E128807EE902AFBEEC87A1BB167
:102E4000B7EE007A77EE677AD0ED056A90ED047AF6
:102E500077EEE67A437E67EE877A0BB1F1EE677A1A
:102E600090ED030A90ED017A77EEC07AA7EE270A7B
:102E700080ED030A704700BF837E80ED020AABB984
:102E8000D0ED077A27EE800AF6EE007AB7EE007AE8
:102E900020EE270AC7EE007AF4EEC77AF1EE10FAB8
:102EA00007DDF0EE477AC0ED017A7047DFED067A74
:102EB000E8E7F5EEC07AF1EE10FAF4D5DFED037A2B
:102EC000C0ED017A704700BF6F12033B00000000A5
:102ED00030B585B004460025ADF80C10ADF80820DB
:102EE000ADF8043003F0F2F8BDF80C204FF4807315
:102EF000206004F118002283BDF808206383E38377
:102F0000A283257100F0B2FE04F11C0000F0AEFEB9
:102F10009FED060A019904F1080000F085F94FF6CB
:102F2000FF736562238405B030BD00BF0000000060
:102F3000F8B5044603F0CAF80026236826718342D8
:102F400005D104F10800BDE8F84000F087B9012779
:102F500094F82050206004F11800BD40277100F063
:102F600061FF6DB2284394F82150BD4084F82000E1
:102F700004F11C0000F056FF94F820306DB2666238
:102F800003F003032843022BC0B284F8210009D0C8
:102F900000F003000228D4D1002BD2D14FF0FF3330
:102FA0006362CEE78307CCD16762CAE7704700BF90
:102FB000F8B5134F3C687F2C07D98023114A42F2A1
:102FC00024411C463B60A2F87E100F4D2B68012B5C
:102FD0000AD90C4E0D4D22463146284600F0F4F930
:102FE0000028F8D13860F8BD22460649074800F0AD
:102FF000EBF90028F7D12B68386001332B60F8BD5E
:10300000909A0024949A00248C9A0024149B002403
:1030100030B4154C2168F1B14B1E144DE81810F86E
:1030200001298C4619460A2A01D00D2A02D14BB13A
:10303000013BF4E70CF102037F2B10D980232360BE
:1030400030BC70470122022323600D200A236854FC
:10305000AB5430BC704701220223044DF4E70CF15D
:1030600001026146F0E700BF909A0024949A002480
:1030700010B5094C02460B46084821680844C1F1C6
:10308000800111F085F9236818442060FFF7C0FF24
:10309000FFF78EFF10BD00BF909A0024949A002481
:1030A0000FB400B583B004A951F8040B0191FFF7E8
:1030B000DFFF03B05DF804EB04B0704710B50446C1
:1030C00000210A4800F0FAF8002C094B14BF022234
:1030D000002208481A60FFF7E3FF0748FFF7E0FF08
:1030E0000A20BDE8104002F0F3BF00BF149B00248B
:1030F0008C9A0024D8560108E8560108064A074968
:10310000074808B510F0C8FB034A04490548BDE864
:10311000084010F0C1BB00BF00000024AD2F000824
:10312000149B0024189B0024074A118830B4818026
:103130000024064D91884FF4807285600460C18040
:10314000C26030BC704700BF0C5501080040003021
:1031500000220A2302700371704700BF30B585B0AA
:1031600004469FED110A9DF82050ADF80C1003990C
:10317000ADF808202A46ADF804308DED000A0EF0B7
:1031800045F99DED000A2A46029904F11C000EF053
:103190003DF99DED000A2A46019904F1380005B079
:1031A000BDE830400EF032B900007A4410B52DED84
:1031B000028BF0EE608A0446B0EE418A0EF04AF9C6
:1031C00004F11C00B0EE680A0EF044F9B0EE480AB3
:1031D00004F13800BDEC028BBDE810400EF03AB9A6
:1031E00038B50C46054691ED000A0EF033F994ED22
:1031F000010A05F11C000EF02DF994ED020A05F10B
:103200003800BDE838400EF025B900BF10B50446BF
:103210000EF032F904F11C000EF02EF904F1380022
:10322000BDE810400EF028B970B5044682B0C1F375
:103230000726CDB2ADF8041002F048FF4FF48072BB
:103240004FF001232060A01DA571A280E671A3604C
:1032500002B0BDE8704000F009BD00BF38B50446BB
:1032600002F034FF002223682271834210D0012231
:10327000A57AE37A954020602271A01D6DB243B912
:1032800000F0D0FD40B22843C0B27F28A0720AD01F
:1032900038BD00F0C7FDB0FA80F040092843C0B245
:1032A0007F28A072F4D102F011FF07EE900AF8EE29
:1032B000677AC4ED037A38BD704700BF012910B5A5
:1032C00006D0022915D051B1BDE8104007F052BC1C
:1032D0000A46344834490DF0EDFBE8B1FEE7334BC4
:1032E0000A46334C334934481C600DF0E3FB68B1A7
:1032F000FEE701222C492B480DF0DCFB00B1FEE774
:103300002E4928480DF0F8FBC0B1FEE72B492A48AA
:103310000DF0F2FB60B1FEE7284922480DF0ECFB0E
:1033200000B1FEE726491F480DF074FB08B3FEE725
:10333000244921480DF06EFBA8B1FEE72049194849
:103340000DF068FB00B1FEE716480DF0EBFB0246FE
:1033500040B9164B164C174917481C600DF0AAFBD4
:1033600068B1FEE7FEE714480DF0DCFB0028ABD0A7
:10337000FEE70C480DF0D6FB0028A5D0FEE70F496C
:103380000D480DF0B9FB00B1FEE70E490A480DF0FB
:1033900041FB00B1FEE708480DF0C4FB002893D0C4
:1033A000FEE700BFB89D0024D802002454A00024EA
:1033B000B9320008BC0200241C9B002440030024F6
:1033C0009C0200248C020024084691B208B503F048
:1033D00055F9003818BF012008BD00BF014806F0AC
:1033E000A7BE00BFB8DA0024014806F0A1BE00BFA6
:1033F000B8DA0024014806F09BBE00BFB8DA00240A
:1034000000B583B04FF0000E4FF0030C4274ADF8DE
:103410000410BDF8043080F810E0A0F802C003806A
:1034200003B05DF804FB00BF2DE9F04FDFF81C830B
:1034300000258DB0C04C037008F140034260074680
:1034400001920E46202229464046C4F86831C4F84D
:103450006481CDE90255CDE90455CDE90655CDE9A4
:103460000855CDE90A5510F06BFE2022294604F5D7
:10347000A170C4F83151C4F83551C4F83951C4F8B9
:103480003D5110F05DFE019B84F8485284F83031C4
:103490007A68002A6AD02B4604F59871454606F1F1
:1034A000100A9E46F01856F803B0E2180EF1010E0D
:1034B000D0F80CC0D0F80490D0F8088044F803B0DD
:1034C000C2F80CC04FF0000CC2F80490C2F808809B
:1034D000008A25F802CB10821AF8032001F8012F88
:1034E000002A70D07A684FF001001233724584F8D8
:1034F0004802D7D84FF4802290489DF80430082124
:103500004FF000084FF00009C4F884310023C4E9EB
:103510005B020122C4F8743184F88031C4E95E2171
:1035200094F84812C4E96489A9B3C4F89821002228
:1035300084F8813184F888313B78C4E96722002B14
:1035400038D0012200200121013B84F8A421C4E9E4
:103550006C01082B30D8DFE813F0BD00C200C700B3
:10356000CC00D100D600DB00E100E8009DF804307B
:103570000121C4F87421C4F884314FF4802384F805
:1035800080216E4AC4E95B2308230022C4E95E134C
:103590000023C4E964230123002284F8813100233D
:1035A00084F888310323C4F898313B78C4E9672252
:1035B000002BC6D184F8A431614804F0ABF903466E
:1035C00038B1FFBEFEE77A68123372453FF66AAF44
:1035D00090E702A95A48029304F0FAFA82460028BA
:1035E00076D1042240F2FF710A90CDE9081294F8D6
:1035F0003021002A00F0F3804FF006080AEBCA03DE
:103600004FEACA0904EB43035B7C072B07D8DFE8CA
:1036100003F0595C5653504D4A04072307930FFAA1
:103620008AF6D14406EBC60604EB490904EB4607CB
:103630007500384600F01AFB99F81030042B00F39F
:10364000AA80022B00F3BD8000F0B98004EB0A03CE
:10365000002283F8202114F81630002B78D0022B9A
:1036600000F08A80012B40F0B2807B78012B00F0C3
:10367000B080002B334B18BF002305A93048CDE99B
:10368000053803F073FD002840F0AC800AF1010A10
:1036900094F830315FFA8AFA534540F2A0802A4B01
:1036A00053F82A80AAE706230793B8E70523079370
:1036B000B5E704230793B2E703230793AFE7022399
:1036C0000793ACE700230793A9E701230793A6E735
:1036D000FFBEFEE703224023C4E96A236CE707220A
:1036E0006023C4E96A2367E70F228023C4E96A23C1
:1036F00062E71F22A023C4E96A235DE73F22C023BB
:10370000C4E96A2358E77F22E023C4E96A2353E728
:10371000FF224FF48073C4E96A234DE740F2FF12A1
:103720004FF49073C4E96A2346E740F2FF324FF446
:10373000A073C4E96A233FE760A000240020024090
:10374000CCA100240002B025F85601080041003049
:103750007B78062B37D0072B3DD0022B4AD0032B8A
:103760004AD0002B4CD0012B48D0042B4AD0052B3B
:10377000254B18BF002380E77B78042B25D0052B31
:103780002BD08BB3012B31D0022B31D0032B1F4B0D
:1037900018BF002371E70323043504EB0A0B4FF035
:1037A000000925448BF82031284609F1010900F071
:1037B0005DFA9BF8203104354B45F5DC4BE70123DE
:1037C000EAE70223E8E7124B57E7124B55E70023DD
:1037D00053E7114B51E7114B4FE7114B4DE70DB03C
:1037E000BDE8F08FFFBEFEE70E4B46E70E4B44E709
:1037F0000E4B42E70E4B40E70E4B3EE70E4B3CE7CD
:103800000E4B3AE70E4B38E70000B84F00209036D9
:103810000800900C1000C0102000F0148000501D13
:10382000000180210004002A0008302E00106032C0
:103830000040C03A0080F03E0000524700002143A3
:103840000000844B38B5094C40F2FF724FF0011173
:1038500004F5B675284604F069F994F83021D4F8D7
:1038600064112846BDE8384003F0D4BE60A00024AF
:10387000034B0F29D3F8640198BF00EB4100704758
:1038800060A00024214B02689A4200D07047204A71
:1038900000232048D2F8D81030B51F4C41F0200149
:1038A00083B0C4F8D001092004F5E875C4E97503B4
:1038B0004FF48060C2F8D810D2F8D8204FF40061DD
:1038C000C4E9773094F8480202F02002C4F8E41109
:1038D0004FF40051984201922846C4F8E811C4E917
:1038E0007C33019B14BF00234FF48073C4F8EC3188
:1038F00004F094FB08B1FFBEFEE704F5B673C4F80C
:10390000B851C4F8083203B030BD00BF00200240F7
:10391000004402584000024060A00024014804F026
:10392000F5BE00BF30A2002402682DE9F84F4B4BD2
:103930009A4201D0BDE8F88F494D95F84832002BE6
:10394000F8D095F83031002B77D0002405F10C0920
:1039500005F5A17605F59877A04613E003F001017F
:1039600017F811BCA9F1080000F06AFABBF1010FC9
:1039700025D895F83031013409F112090236A2B286
:1039800093422BD917F8012F002AF4D0D5F86431CF
:103990000021327833F81400D5F8683103EB0413B2
:1039A00023F81200338801339BB233805FFA83FA25
:1039B0003A789A42D2D88A46A6F80080D0E7CAF36D
:1039C0004001A9F1040000F03BFABBF1020FCAF379
:1039D0008001CED0484600F033FACAE7002395F8BC
:1039E0004802204909229842C5F8D8314FF4806036
:1039F000C5F8D011C5F8D4214FF400614FF400523E
:103A0000C5F8DC3108BF4FF48073C5F8E821C5E97B
:103A1000780100221448C5E97B32C5F8F42104F08E
:103A2000FDFA08B1FFBEFEE795F83021D5F8641124
:103A30000E48BDE8F84F03F0EDBD0A4909224FF4E6
:103A40008060C5F8D831C5E974124FF400614FF4B5
:103A50000052C5E97730C5E97912DAE70020024063
:103A600060A000244000024030A20024CCA1002429
:103A7000704700BF10B592B0ADF804100180C9B214
:103A8000149C0B29C460C0E901233FD090F801C009
:103A9000BCF10F0F3AD8022A3FD0032A02D0012AE4
:103AA00000D000220E92012B02D0022B18BF00235F
:103AB000022C0F932CD0032C2AD0012C28D00023C9
:103AC0000A29109327D85C4A02EB812202610A2955
:103AD00014D8DFE801F0A39587796B5D4F4133255A
:103AE0000600564BD3F8E01041F48061C3F8E010B3
:103AF000D3F8E03003F480630C930C9B01230DA9F1
:103B0000104603FA0CF30D9305F052F912B010BDF4
:103B10000A291094D7D90022D8E711220E92C2E7C1
:103B2000464BD3F8E01041F40071C3F8E010D3F82D
:103B3000E03003F400730B930B9BDFE73F4BD3F8AC
:103B4000E01041F48071C3F8E010D3F8E03003F4E2
:103B500080730A930A9BD1E7384BD3F8E01041F009
:103B60008001C3F8E010D3F8E03003F0800309933C
:103B7000099BC3E7314BD3F8E01041F04001C3F893
:103B8000E010D3F8E03003F040030893089BB5E75A
:103B90002A4BD3F8E01041F02001C3F8E010D3F82D
:103BA000E03003F020030793079BA7E7234BD3F8EC
:103BB000E01041F01001C3F8E010D3F8E03003F05A
:103BC00010030693069B99E71C4BD3F8E01041F0D5
:103BD0000801C3F8E010D3F8E03003F008030593C0
:103BE000059B8BE7154BD3F8E01041F00401C3F8B7
:103BF000E010D3F8E03003F004030493049B7DE766
:103C00000E4BD3F8E01041F00201C3F8E010D3F8F6
:103C1000E03003F002030393039B6FE7074BD3F8F5
:103C2000E01041F00101C3F8E010D3F8E03003F0F8
:103C300001030293029B61E700000258004402580E
:103C400008B5012143780069994089B205F0B8FAB6
:103C5000003818BF012008BD01230A4641780069D9
:103C600003FA01F189B205F0B1BA00BF8378022BE3
:103C700030B504468FB037D0032B33D0012B31D071
:103C800000230A93E378012B2AD0022B28D00023AB
:103C90000B93002320460C9303F0E2F805462046E0
:103CA00003F0E6F823780990082B13D8DFE803F037
:103CB0001F3245586B7E91A40500594BD3F8E02084
:103CC00042F48072C3F8E020D3F8E03003F480734C
:103CD0000893089B09A9284605F06AF80FB030BD83
:103CE0000B93D6E70A93CDE711230A93CAE74C4B0F
:103CF00009A92846D3F8E02042F00102C3F8E020E9
:103D0000D3F8E03003F001030093009B05F050F876
:103D10000FB030BD424B09A92846D3F8E02042F04D
:103D20000202C3F8E020D3F8E03003F0020301936D
:103D3000019B05F03DF80FB030BD394B09A928466D
:103D4000D3F8E02042F00402C3F8E020D3F8E030DA
:103D500003F004030293029B05F02AF80FB030BD74
:103D60002F4B09A92846D3F8E02042F00802C3F8F7
:103D7000E020D3F8E03003F008030393039B05F041
:103D800017F80FB030BD264B09A92846D3F8E0201C
:103D900042F01002C3F8E020D3F8E03003F0100343
:103DA0000493049B05F004F80FB030BD1C4B09A927
:103DB0002846D3F8E02042F02002C3F8E020D3F8F0
:103DC000E03003F020030593059B04F0F1FF0FB0F2
:103DD00030BD134B09A92846D3F8E02042F0400239
:103DE000C3F8E020D3F8E03003F040030693069BCD
:103DF00004F0DEFF0FB030BD094B09A92846D3F807
:103E0000E02042F08002C3F8E020D3F8E03003F075
:103E100080030793079B04F0CBFF0FB030BD00BFBA
:103E20000044025838B5054603F01AF804462846FF
:103E300003F01EF801462046BDE8384005F0C0B941
:103E400070B506460D4603F00BF80446304603F005
:103E50000FF82A1E0146204618BF0122BDE8704017
:103E600005F0B4B90023122270B586B0CDE9022363
:103E700004930368032B01D804230593061D841DB6
:103E8000304602F0EDFF0546304602F0F1FF0346F2
:103E900001A92846019304F08BFF204602F0E0FFC1
:103EA000034620461C4602F0E3FF01A903462046D4
:103EB000019304F07DFF06B070BD00BF634A036844
:103EC000934210B58CB028D0614A934258D0614AD1
:103ED000934200F09480604A934201D00CB010BD30
:103EE0005E4C5F48D4F8E03043F00203C4F8E030A1
:103EF000D4F8E03003F002030A930A9BFFF7B2FF05
:103F0000D4F8F43043F08003C4F8F430D4F8F4303B
:103F100003F080030B930B9BE0E7504C5148D4F81F
:103F2000E03043F00203C4F8E030D4F8E03003F0AE
:103F300002030193019BFFF795FFD4F8E8300022BC
:103F40001F2043F400131146C4F8E830D4F8E830D9
:103F500003F400130293029BD4F8D83043F001031A
:103F6000C4F8D830D4F8D83003F001030393039B8E
:103F700003F0A2FE1F200CB0BDE8104003F0DABE33
:103F8000364C3948D4F8E03043F08003C4F8E030D0
:103F9000D4F8E03003F080030493049BD4F8E030BD
:103FA00043F00203C4F8E030D4F8E03003F0020339
:103FB0000593059BFFF756FFD4F8E8300022212037
:103FC00043F480031146C4F8E830D4F8E83003F431
:103FD00080030693069BD4F8D83043F00103C4F85D
:103FE000D830D4F8D83003F001030793079B03F0CF
:103FF00063FE21200CB0BDE8104003F09BBE1B48BF
:10400000FFF730FF154B00224820D3F8E840114657
:1040100044F40004C3F8E840D3F8E84004F4000492
:104020000894089CD3F8D84044F00104C3F8D84061
:10403000D3F8D83003F001030993099B03F03CFE49
:1040400048200CB0BDE8104003F074BE005400409E
:1040500000580040005C0040001C0058004402581A
:1040600038A50024B0A2002488A3002460A4002462
:104070002DE9F0431A4B87B000254FF010099E46FA
:10408000EC46184BFF22E04667461A700EF1180600
:104090000EF13004CDE90055CDE90255ADF80090A0
:1040A000BCE80F00CDE90455AEE80F009CE8030022
:1040B0000095ADF800908EE80300B8E80F000FC639
:1040C0009CE803000095ADF8009086E803000FCF50
:1040D0000FC49CE8030084E8030007B0BDE8F08348
:1040E0004C000024ACA2002410B5EFF3108472B68B
:1040F000084B1A78120602D504B962B610BD1B78B7
:10410000D82205485BB202FB0300143004F0FEFA2B
:10411000F2E700BFACA20024B0A20024014805F0E1
:10412000EDBE00BF3CA30024014805F0E7BE00BF80
:1041300014A40024014805F0E1BE00BFECA4002453
:104140002DE9F0430F68D8243F4D85B007FB04F4F8
:10415000032F05EB0403036040DCCB680E46012B04
:104160003CD84DD04FF0D808B646DFF8FC9008FB9D
:104170000758BEE80F00C446ACE80F00DEF8003078
:104180000DF1100ECCF80030D8F808C099E80F00F7
:104190000EE90F000EEB8703BCF1010F53F8103C42
:1041A000C8F88C3031D0BCF1020F42D0BCF1000F06
:1041B00035D0317C8C34D823002201202C4403FBE1
:1041C00007534900C3E92602C3F894102046C3E907
:1041D0002822C3E92A2205F083FC18B1012005B08A
:1041E000BDE8F0830146204605F094FE0028F5D195
:1041F0000146204605F0B8FE003818BF0120EEE762
:104200000B7C103B672BADD9E8E702F0FBF80F4BB6
:1042100098420CBF0E4B0F4BC8F89030C9E702F024
:10422000F1F80A4B98420CBF0B4B0C4BC8F890307E
:10423000BFE702F0E7F8054B98420CBF084B094B6B
:10424000C8F89030B5E700BFB0A20024000E2707E1
:104250002D0FB0303211D0205F4390608A62E03081
:10426000200BA0101A098010145501082DE9F04107
:10427000D0F8008082B00D4617461E4608F18C0427
:10428000204605F043FE2028FAD1D8F80C3073B947
:104290006D002046089C33463A46A9B2009405F0CA
:1042A00075FC003818BF012002B0BDE8F081089B02
:1042B00032463946204605F03DFDF2E7044B102218
:1042C0001A7483F8E82083F8C02183F89822704795
:1042D000B0A2002430B5002395B04FF480710622BF
:1042E00004460B9306921393CDE90C13CDE90E33DC
:1042F000CDE9113302F088F807282BD004F110051E
:1043000041F2883206A9284606F080FD28B1012333
:10431000184684F85C3015B030BD0222022306A98D
:104320002846CDE9002310220123CDE902230022F3
:104330004FF48003CDE9042305224FF080730692E9
:104340006A460F9341F2883306F0CCFE0028DED196
:1043500015B030BD0323012084F85C3015B030BDAA
:1043600070B50023A4B04FF080724FF480750446FE
:10437000ADF806300D93CDE910320122CDE90E5390
:10438000CDE91223CDE91433002943D0F02300F105
:10439000100508AEADF80630C02341F28832314630
:1043A0002846089306F032FD28B10123184684F808
:1043B0005C3024B070BD41F288320DF10601284610
:1043C00006F08EFD03460028EFD105224FF48071E0
:1043D0001E93284616924FF080721B9321931F92D2
:1043E00002AA9FED1F7BCDE91C13CDE922338DED91
:1043F000027B9FED1D7B41F2883316A98DED047B76
:104400009FED1B7B8DED067B06F06CFE0028CCD16A
:1044100024B070BD00F1100508AE612341F288326E
:1044200031462846089306F0F1FC0028BDD141F240
:1044300088320DF10601284606F0D0FD0028B4D1DF
:10444000BDF80630204623F0780343F04003ADF872
:104450000630FFF73FFF00289ED0A6E7AFF30080AD
:10446000000000000100000010000000010000003A
:1044700000000000000040002DE9F04F00234FF441
:10448000807501264FF0807804462DED028BABB08D
:104490008DF8073013932193299314950E96CDF838
:1044A0005C80CDE91533CDE91863CDE91A33CDE948
:1044B0002253CDE92433CDE9273306231C9301F0A1
:1044C000A3FF072808D004F1100741F288321CA985
:1044D000384606F09BFC40B10123184684F85C3056
:1044E0002BB0BDEC028BBDE8F08F4FF0020A4FF00D
:1044F000020B4FF0050941F2883308AA1CA938467F
:10450000CDF89480CDF870909FED2D8BCDE908AB60
:104510004FF0000A4FF4800B8DED0A8BCDE90CAB08
:1045200006F0E0FD0028D7D141F2883238460EA9C6
:1045300006F06CFC0028CFD1402341F288320DF107
:10454000070138468DF8073006F0CAFC0028C3D1B1
:1045500041F288330EA902AA3846CDF83890CDF83A
:104560005C809FED197B8DED048BCDE906AB8DED65
:10457000027B06F0B7FD03460028ADD1CDF8709060
:104580004FF00109CDF894804FF00008219308AA5C
:1045900029931CA938462295CDE92333CDE9273349
:1045A00041F288338DED0A8BCDE90CABCDE908895A
:1045B00006F098FD002893D0304684F85C608FE7C1
:1045C000100000000100000040000000400000005A
:1045D0002DE9F043624CA3B00D46046001F014FFD6
:1045E000072800F0A980286823466968AA6807C3DD
:1045F0001E46AB8926F8043B3046257B677B06F0D8
:10460000E7FBE0B9574B012D4FF00108E061236152
:1046100014BF4FF480134FF40003C4E9058893FAE4
:10462000A3F3B3FA83F34FF48079013BC4F82490E9
:10463000C4E90B003046236206F05EFB38B101226C
:10464000134684F85C20184623B0BDE8F083662347
:104650000B90139041F2883206A90693CDE90C9095
:10466000CDE90E00CDE91100304606F0CFFB002861
:10467000E5D1992341F2883206A93046069306F027
:10468000C5FB0028DBD105231C9019906A461493C2
:104690004FF08073219014A91D9341F288339FED50
:1046A0002A7BCDE91A90CDE91F008DED007B9FEDAF
:1046B000287B30468DED027B9FED277B8DED047BC3
:1046C00006F010FD0028BAD129462046FFF748FE23
:1046D0000028B4D12046FFF7CFFE03460028AED114
:1046E000002FB0D1189330460027002606AA14A93F
:1046F000CDF86890CDE91F33EB2314934FF440635A
:104700001B934FF4005317934FF440431C93A02383
:104710001693062319934FF0805321934FF0407363
:10472000CDE906671D9306F055FD034600288AD0A3
:10473000434684F85C8086E701230322184684F808
:104740005C2023B0BDE8F083000000000100000001
:104750001000000001000000000000000000400008
:1047600010A60024005000522DE9F04F8FB0414BAD
:104770000024026800AF9A427C63C7E90944C7E994
:104780000B4403D03C37BD46BDE8F08F3A4B40F6B2
:1047900009213A48EB46D3F8D42007F11C0607F16B
:1047A000220A4FF0020942F480424FF00308C3F896
:1047B000D420D3F8D42002F48042BA60BA68D3F887
:1047C000E02042F04002C3F8E020D3F8E02002F0FD
:1047D0004002FA60FA68D3F8E02042F02002C3F801
:1047E000E020D3F8E02002F020023A613A69D3F8E1
:1047F000E02042F01002C3F8E020D3F8E02002F0FD
:1048000010027A617A69D3F8E02042F00202C3F81C
:10481000E020D3F8E030F86103F002033984BB6193
:10482000174B7B60BB697B6853F8040F7B6002F019
:1048300017FB7B680546186802F01AFB16F8013B67
:10484000786207F124012846C7F830807B63C7E906
:104850000A9404F0ADFA5645E5D100225C201146D9
:1048600003F02AFA5C2003F065FA3C37DD46BD46CA
:10487000BDE8F08F00500052004402580A0A0909AE
:104880006CA60024114B02689A4200D07047104A6F
:1048900070B5D2F8D4300F4C23F4804304F11806DD
:1048A000C2F8D43054F8040F02F0DAFA0546206852
:1048B00002F0DEFA0146284604F0BAFBB442F1D118
:1048C0005C20BDE8704003F043BA00BF00500052C6
:1048D000004402586CA60024014806F007BD00BF42
:1048E00020A60024084B1A1D981D03F1080110B4DE
:1048F0009C1C9A6603F10A02C3E91834C3E91B0140
:104900005DF8044B5A67704710A6002438B5036859
:1049100071B9026A00F1280500F5AC74012A0CBFD8
:10492000002140218BBB1D4B5722C0F858310DE0B0
:10493000426A00F1C00500F5E874012A0CBF0021AD
:104940004021EBB1164B5A22C0F8D031002320464B
:10495000C4E901214FF480524FF4806163626261C7
:104960004FF48042C4E903314FF48073C4E9062355
:104970004FF40033236203F051FB58B1FFBEFEE752
:10498000084B5822C0F8D031E0E7074B5922C0F855
:104990005831DBE7C5E92044A56338BD100002406B
:1049A0007000024028000240580002402DE9F04308
:1049B000821D05468BB0031D05F10A010830CDE9C3
:1049C000052305F10C02AB69CDE907010992002B23
:1049D0003DD0EB69B3FA83F84FEA5818012302225D
:1049E00005AE0AAF4FF006090393CDE9012356F84F
:1049F000044B2B792278934216D02B68F3B1012B0C
:104A000002D1F2B10A230493204602F031FA0346A0
:104A10002046009302F024FA694604F0C9F9BE4228
:104A2000E5D10BB0BDE8F083697963789942E4D1B0
:104A3000B8F1000FF3D02B68002BE0D1CDF8109027
:104A4000E2E76378022B14BF0A230823DBE74FF069
:104A50000108C3E7534A0368934230B505468BB05B
:104A600055D02032934252D04F4A934204D0203244
:104A7000934201D00BB030BD4C4C4D48D4F8E030DF
:104A800043F00103C4F8E030D4F8E03003F0010350
:104A90000593059BD4F8E03043F00803C4F8E030F8
:104AA000D4F8E03003F008030693069BD4F8E03016
:104AB00043F04003C4F8E030D4F8E03003F04003A2
:104AC0000793079BD4F8F03043F40003C4F8F030A8
:104AD000D4F8F03003F400030893089BFFF766FF57
:104AE000D4F8D830296843F001032F4A3048C4F87D
:104AF000D830891AD4F8D83018BF012103F0010347
:104B00000993099B0BB0BDE83040FFF7FFBE274C6F
:104B10002848D4F8E03043F00103C4F8E030D4F87A
:104B2000E03003F001030093009BD4F8E03043F041
:104B30001003C4F8E030D4F8E03003F01003019320
:104B4000019BD4F8E03043F04003C4F8E030D4F8DF
:104B5000E03003F040030293029BD4F8F03043F4BA
:104B60008003C4F8F030D4F8F03003F480030393EA
:104B7000039BFFF71BFFD4F8D830296843F00103EB
:104B8000084A0C48C4F8D830891AD4F8D83018BF6D
:104B9000012103F001030493049B0BB0BDE83040F6
:104BA000FFF7B4BE04580140045C014000440258C1
:104BB000E4A8002488A60024014803F0A7BD00BF94
:104BC000E0A70024014803F0A1BD00BF58A80024BD
:104BD000014803F09BBD00BF3CAA0024014803F03C
:104BE00095BD00BFB4AA00241A4A0368934210B4CA
:104BF0000BD02032934208D0174A934216D020326D
:104C0000934213D05DF8044B7047144B0022D3F845
:104C10005442C3F85822002CF4D0D3F84802D3E908
:104C2000931223465DF8044B520818470B4B0022A1
:104C3000D3F8B044C3F8B424002CE3D0D3F8AC24A8
:104C4000D3F8A814D3F8A404520823465DF8044B03
:104C5000184700BF04580140045C014088A60024A6
:104C6000184A0368934210B40BD02032934208D004
:104C7000154A934217D02032934214D05DF8044B6A
:104C80007047124BD3E994245208C3F85822002CE1
:104C9000F4D0D3E99201234601EB820100EB8200BC
:104CA0005DF8044B1847094BD3F8AC24D3F8B04453
:104CB0005208C3F8B424002CE0D0D3F8A814D3F8D9
:104CC000A404E8E704580140045C014088A60024DD
:104CD0002DE9F04F0C684FF41776754F87B004FB41
:104CE00006F6012C07EB060AC0F800A000F3A0802E
:104CF0000D468E464FF00008D44669A3D3E9002341
:104D000069A1D1E90001CDE9022306ABCAF85082BE
:104D100003EB8403CDE9040153F810BC53F8083CBD
:104D2000CAE992880193BEE80F00ACE80F00BEE824
:104D30000F00ACE80F00019B9EE80300CAF828B002
:104D4000CAF8C0308CE803002B69042B0CD8DFE8CC
:104D500003F0737D879103004FF41773554A03FBEB
:104D600004739A64C3F8E020AA692B6A002A43D02E
:104D7000002B4FF4177308BF022203FB047318BF04
:104D80000322DA6201221A63EA696B6A002A40D1BF
:104D9000191E4FF4177318BF012103FB0473C3E9F5
:104DA00031126B69022B05D8434A12F80380434A3B
:104DB00052F823904FF4177306F1280042464946F3
:104DC00003FB04740023384463646363E365C4F83D
:104DD000DC30C4F8CC30C4F8F430C4E90F33C4E993
:104DE0001533C4E93533C4E93B33022308F020FB13
:104DF000002849D0FFBEFEE7191E4FF4177318BFF5
:104E0000012103FB0473C3E90B12EA696B6A002AF0
:104E1000BED0002B4FF4177308BF022203FB0473AC
:104E200018BF0322C3F8C4200122C3F8C820B8E782
:104E3000012007B0BDE8F08F4FF417734FF4FA521A
:104E400003FB04739A64C3F8E0208DE74FF41773F3
:104E50004FF47A5203FB04739A64C3F8E02083E7AB
:104E60004FF417734FF4FA4203FB04739A64C3F8C8
:104E7000E02079E74FF417734BF6803203FB04739D
:104E80009A64C3F8E0206FE706F1C00002234246AF
:104E90004946384408F0CCFA0028CAD0FFBEFEE7E5
:104EA00004580140045C014024580140245C014046
:104EB00088A6002400770100385701083C570108F4
:104EC0000068704770B5046882B015460E46C4F895
:104ED0005032C4E99212069AC4F85422A269012AF7
:104EE00026D0626A012A9AB211D0294604F1C00084
:104EF000019208F059FB236A019A012B10D0294630
:104F000004F1280008F050FB002002B070BD04F14D
:104F1000C000019208F0DAFB236A019A012BEED15E
:104F2000314604F1280008F0D1FB002002B070BD2A
:104F3000226A012A9AB211D0294604F1280001926E
:104F400008F032FB636A019A012B10D0294604F164
:104F5000C00008F029FB002002B070BD04F1280059
:104F6000019208F0B3FB636A019A012BEED131463E
:104F700004F1C00008F0AAFB002002B070BD00BF21
:104F800003681B69042B05D8044A02EB830393EDE5
:104F9000000A70479FED020A704700BF485701089A
:104FA00000803B470368D3F8580270471F4BC16825
:104FB0000268F0B5D3F88C5083B00369ADB24D1BD5
:104FC000A2B1AB4212D00446866811D2F018E91A99
:104FD000CDE9001000F0B4FF0023DDE90010D4E9B2
:104FE0000062B047E3682561AB421BD003B0F0BD5F
:104FF000F018C91ACDE9000100F0A2FF0023DDE995
:105000000001D4E90072B8473046294600F098FF05
:1050100000233046626829462668B047E368256168
:10502000AB42E3D10023236103B0F0BD0000024096
:105030002DE9F84F04460F4690461E4600F1340510
:10504000284608F0CFFE2028FAD14FF480630020D4
:10505000C4F8D030C4F848314FF44033C4F8CC0021
:10506000C4F8E030C4F858314E4BC4F8DC00C4F842
:10507000C03003F57A73C4F8E400C4F83831402333
:10508000C4F8C800C4F84031E369C4F84401C4F866
:105090005401C4F85C01C4E93500C4E95300072B8E
:1050A0000BD8DFE803F061535A373E454C045123D7
:1050B000C4F8C4305223C4F83C3104F59C79484606
:1050C00002F0ACFF08B1FFBEFEE7C4F8A890C4F838
:1050D0007051EFF3108972B6DFF8D0B094F91C303C
:1050E000DFF8CCA08BF800300A9B2F4CCAF80030B8
:1050F0000B9B23600EB11846B0471FFA88F2394661
:10510000284608F059FCB0BBB9F1000F00D162B6D7
:10511000BDE8F88F3F23C4F8C4304023C4F83C31C5
:10512000CBE74123C4F8C4304223C4F83C31C4E780
:105130004723C4F8C4304823C4F83C31BDE74F23AB
:10514000C4F8C4305023C4F83C31B6E72B23C4F86C
:10515000C4302C23C4F83C31AFE72D23C4F8C4304D
:105160002E23C4F83C31A8E72923C4F8C4302A23ED
:10517000C4F83C31A1E7FF238BF800300023CAF8C4
:10518000003023600A9B3BB10B9801219847012016
:10519000B9F1000FBCD1BAE70120B9F1000FB7D1C6
:1051A000B5E700BF8800024078BA002474BA002432
:1051B00070BA00242DE9F84F04460F4690461E466B
:1051C00000F13405284608F00DFE2028FAD14FF4EE
:1051D00080630020C4F8D030C4F848314FF4403325
:1051E000C4F8CC00C4F8E030C4F858314E4BC4F8D1
:1051F000DC00C4F8C03003F57A73C4F8E400C4F8E6
:1052000038314023C4F8C800C4F84031E369C4F819
:105210004401C4F85401C4F85C01C4E93500C4E990
:105220005300072B0BD8DFE803F061535A373E4594
:105230004C045123C4F8C4305223C4F83C3104F167
:10524000C009484602F0EAFE08B1FFBEFEE7C4F816
:10525000AC90C4F8F850EFF3108972B6DFF8D0B014
:1052600094F91C30DFF8CCA08BF800300A9B2F4C4F
:10527000CAF800300B9B23600EB11846B0471FFAE6
:1052800088F23946284608F0E9FBB0BBB9F1000FB7
:1052900000D162B6BDE8F88F3F23C4F8C430402384
:1052A000C4F83C31CBE74123C4F8C4304223C4F8EE
:1052B0003C31C4E74723C4F8C4304823C4F83C3128
:1052C000BDE74F23C4F8C4305023C4F83C31B6E7DF
:1052D0002B23C4F8C4302C23C4F83C31AFE72D2372
:1052E000C4F8C4302E23C4F83C31A8E72923C4F8FD
:1052F000C4302A23C4F83C31A1E7FF238BF80030E7
:105300000023CAF8003023600A9B3BB10B980121AF
:1053100098470120B9F1000FBCD1BAE70120B9F1DB
:10532000000FB7D1B5E700BF8800024078BA00246B
:1053300074BA002470BA00242DE9F0410D4682B001
:10534000EFF3108772B6002948D1FF23254A264C77
:10535000237013682BB1002029461060234A10687F
:10536000984723781B0625D5DFF888800025204E36
:10537000444605E001351C3406F5D876092D19D0D0
:10538000A369012B1BD0002BF4D1216830460029E2
:10539000F0D06369019323690093E3682289FFF7E2
:1053A00009FF0028E6D1C5EBC50508EB850348F8E1
:1053B0002500586007B962B602B0BDE8F0816168A7
:1053C0000029D7D063693046019323690093E368CD
:1053D0002289FFF72DFE0028CCD1E4E709F0FEFF7B
:1053E000B3E700BF70BA002474BA002478BA00246E
:1053F00040AB002494000024F0B5002387B00222C3
:1054000004460493CDE90223027EC3690B2A4FEAC6
:10541000430523D1A27E0B2A02D1002007B0F0BDA4
:1054200048496B1C484851F8233045780178187872
:10543000E67E884269D0824277D0D87803F1030CA7
:1054400081426ED0824278D0987903F1060C88426E
:105450006FD0824233D0012007B0F0BD394B3A48BB
:1054600053F8253001784678187894F819C08142AD
:105470003DD0824241D0D87803F1030E814240D022
:1054800082424AD0987903F1060E884241D0824286
:10549000E1D1DB796345DED1734604F118069B78D0
:1054A0003046059301F0DCFC034630461E4601F011
:1054B000DFFC01A90190304603F07AFCAAE7DB7912
:1054C000B342C8D163461A349B782046059301F055
:1054D000C7FC034620461C4601F0CAFC034601A94E
:1054E0002046019303F064FC002007B0F0BD93F860
:1054F00001E0B645BFD08242BDD158786045BAD1EF
:10550000CBE71F79B742BBD1BCE75F78AF4292D1FE
:1055100093E7D979B142BAD19DE718796045B1D105
:10552000BAE71F79AF428DD18EE75878B04284D167
:10553000C9E7D979A9428CD18DE71879B04283D1D6
:10554000C0E700BFAC010024A80100247E4A036824
:105550009342F0B58FB000F0E380A2F54C42934245
:1055600000F0E08002F58062934200F0DD8002F5F9
:105570008062934200F0DA8002F58062934200F08C
:10558000D98002F54442934200F0D280A2F51C4239
:10559000934200F0D18002F58062934200F0CE8009
:1055A0006A4A934240F0CC800826694D4FF4D87483
:1055B00004FB0654A07E01F063FC207E01F060FC39
:1055C000E369082B13D8DFE803F03B495765738183
:1055D0008F9D05005F4BD3F8F42042F00802C3F81A
:1055E000F420D3F8F43003F008030893089B204616
:1055F000FFF702FF012801D1FFBEFEE74FF4D87488
:105600000EAA554F0DF1240C04FB0654E36902EB7E
:1056100043050FCFACE80F003B680022ACF8003028
:10562000114635F9140C02F047FBE3690EAA02EBB0
:10563000430333F9140C0FB0BDE8F04002F07ABB1D
:10564000444BD3F8F02042F01002C3F8F020D3F816
:10565000F03003F010030093009BC8E73D4BD3F8F4
:10566000E82042F40032C3F8E820D3F8E83003F42D
:1056700000330193019BBAE7364BD3F8E82042F49C
:105680008022C3F8E820D3F8E83003F480230293A3
:10569000029BACE72F4BD3F8E82042F40022C3F87A
:1056A000E820D3F8E83003F400230393039B9EE73C
:1056B000284BD3F8E82042F48012C3F8E820D3F84E
:1056C000E83003F480130493049B90E7214BD3F854
:1056D000F02042F02002C3F8F020D3F8F03003F0BD
:1056E00020030593059B82E71A4BD3F8E82042F08C
:1056F0008042C3F8E820D3F8E83003F080430693F3
:10570000069B74E7134BD3F8E82042F00042C3F83D
:10571000E820D3F8E83003F000430793079B66E7DF
:10572000002642E7012640E702263EE703263CE743
:1057300005263AE7042638E7062636E7072634E743
:1057400000239B7EFFDE00BF00100140000C0058CC
:1057500040AB002400440258245501082DE9F04FC5
:1057600091B0002301223F490DF1240A09938B4691
:1057700001F11C09CAF8143001F13808CDF800A075
:1057800001F15407CDF804A001F17006CDF808A08E
:1057900001F18C05CDF80CA001F1A804CDF810A002
:1057A00001F1C40ECDF814A001F1E00CCAE90133F7
:1057B000CAE903330F92FF222B4BCDE906AA1A70D8
:1057C000BAE80F00ABE80F009AE80700009B8BE8EF
:1057D00007009B46BBE80F00A9E80F009AE8070006
:1057E000019B89E807009946B9E80F00A8E80F0077
:1057F0009AE80700029B88E807009846B8E80F007F
:105800000FC79AE80700039B87E807001F460FCFE2
:105810000FC69AE80700049B86E807001E460FCED5
:105820000FC59AE80700059B85E807001D460FCDC8
:105830000FC49AE80700069B84E807001C460FCCBB
:10584000AEE80F00079B9AE807001C468EE80700A9
:105850000FCCACE80F009AE807008CE8070011B005
:10586000BDE8F08F9400002474BA002410B5094CF0
:1058700004F1340008F0C4F9237D1BB1636BDB69CC
:10588000DB0600D410BD2046FFF790FB636B1022AF
:105890001A6210BD40AB002410B50B4C04F5F27039
:1058A00008F0AEF994F8C43123B1D4F8E431DB69DF
:1058B000DB0600D410BD04F5D870FFF777FBD4F8F1
:1058C000E43110221A6210BD40AB002410B50B4C1D
:1058D00004F5657008F094F994F8743323B1D4F8A2
:1058E0009433DB69DB0600D410BD04F55870FFF774
:1058F0005DFBD4F8943310221A6210BD40AB002433
:1059000010B50B4C04F2445008F07AF994F82435A1
:1059100023B1D4F84435DB69DB0600D410BD04F5AF
:10592000A260FFF743FBD4F8443510221A6210BD81
:1059300040AB002410B50B4C04F2F46008F060F9A1
:1059400094F8D43623B1D4F8F436DB69DB0600D4FE
:1059500010BD04F5D860FFF729FBD4F8F436102207
:105960001A6210BD40AB002410B50B4C04F6A40025
:1059700008F046F994F8843823B1D4F8A438DB69E8
:10598000DB0600D410BD04F50760FFF70FFBD4F869
:10599000A43810221A6210BD40AB002410B50B4C85
:1059A00004F6542008F02CF994F8343A23B1D4F8D2
:1059B000543ADB69DB0600D410BD04F52260FFF722
:1059C000F5FAD4F8543A10221A6210BD40AB002404
:1059D00010B50B4C04F6044008F012F994F8E43BBF
:1059E00023B1D4F8043CDB69DB0600D410BD04F518
:1059F0003D60FFF7DBFAD4F8043C10221A6210BDB8
:105A000040AB002410B50B4C04F6B45008F0F8F885
:105A100094F8943D23B1D4F8B43DDB69DB0600D49F
:105A200010BD04F55860FFF7C1FAD4F8B43D102258
:105A30001A6210BD40AB002410B5EFF3108472B6AB
:105A4000084B1A78120602D504B962B610BD1B784D
:105A50004FF4D87204485BB202FB0300C03002F07E
:105A600055FEF1E774BA002440AB002410B5EFF303
:105A7000108472B6094B1A78120602D504B962B6C0
:105A800010BD1B784FF4D87205485BB202FB0300CF
:105A900000F59C7002F03AFEF0E700BF74BA0024F3
:105AA00040AB00240021FFF747BC00BF214A036838
:105AB00093422BD0A2F54C42934229D002F580624A
:105AC000934227D002F58062934225D002F580628E
:105AD000934223D002F54442934221D0A2F51C42C6
